:10014400EF1FAC0670011E4C600A7D027CEFDCFEE2
:04015400DDFC80EC62
:010158002284
:0D015900010C96010B960108000209000040
:09016700C292D293D296C29722F3
:07000300C294D296C29722BD
:07017900C295C292D293224D
:09017000C296D297D292C29322EA
:03000B000200E50B
:1000E500C0E0C0D00508E508B4FF07C295C2947505
:1000F5000800E508B50C02D294E508B50B02D295C7
:05010500D0D0D0E03273
:10009A0012010A8E098F0AE50A6402450970F1C243
:1000AA00A37FC8FE120144D2A37FE87E0312014453
:1000BA0012012D30B30830B20512016780F530B352
:1000CA000620B20312000320B30630B203120179EC
:0B00DA0020B3E020B2DD12017080D8DE
:10012D005389F0438902758ADC758CDCC28DD28CC3
:07013D00D2A9D2AFC2B92222
:10010A00E4F50DF50E20B0167F14FE12014430B04E
:10011A00FD7F147E00120144750D00750E02AE0DAE
:02012A00AF0E16
:01012C0022B0
:0300000002000EED
:0C000E00787FE4F6D8FD75810E020055E5
:10001A0002009AE493A3F8E493A34003F68001F262
:10002A0008DFF48029E493A3F85407240CC8C333E7
:10003A00C4540F4420C8834004F456800146F6DFB6
:10004A00E4800B0102040810204080900159E47EEC
:10005A00019360BCA3FF543F30E509541FFEE493AB
:10006A00A360010ECF54C025E060A840B8E493A372
:10007A00FAE493A3F8E493A3C8C582C8CAC583CA9D
:10008A00F0A3C8C582C8CAC583CADFE9DEE780BE55
:010166000098
:00000001FF
