:1004390001086401126E020A0000040E00000000A7
:02044900C100F0
:03000B00020003ED
:03000300D20032F6
:0C000E00D2A17F147E0012044CC2A1227B
:03001B000203AC31
:1003AC00C0E0C0D00509E509B4FF07C295C2947539
:1003BC000900E508B50902D294E512B50902D295F7
:0503CC00D0D0D0E032AA
:09045700C292D293D296C2972200
:09046000D292C293C296D29722F7
:09046900D296D297D292D29322CE
:09047200D292C293D296C29722E5
:1003F00012028E8E0C8F0DE50D6402450C70F1C259
:0A040000A37FC8FE120424D2A32239
:1002FF0030A0FDD28C20A0FDC28CAF8CEFFEAD8A5A
:10030F007C00E42DF50BEC3EF50AE4F58CF58AAC98
:10031F000AAD0B1201297B777AE0793C783E120007
:10032F001E1201628F118E108D0F8C0EE47F587E7E
:10033F001BFDFCAB11AA10A90FA80EC31201F1509F
:07034F0003300002C200228E
:10035600E47F907E01FDFCAB11AA10A90FA80EC385
:100366001201F1503D1204691204607F327E0012C0
:1003760004241204727F3C7E001204241204697F56
:10038600647E0012042412000E1202FFE47F187E1F
:1003960001FDFCAB11AA10A90FA80EC31201F14072
:0603A600D12212045722CF
:10040A00438920438901758DDC758BDCE4F58CF515
:0A041A008AD2ABD2A9D28ED2AF2253
:1003D1001203F07FE87E0312042412040A12000EB5
:0F03E1001202FF1203567F417E0012042480EEA9
:10028E00E4F513F51420B0167F14FE12042430B0DA
:10029E00FD7F147E0012042475130075140220B124
:1002AE00177F147E0012042430B1FD7F147E0012DD
:1002BE00042475130075140320B2177F147E0012E8
:1002CE00042430B2FD7F147E0012042475130075D1
:1002DE00140420B3177F147E0012042430B3FD7F64
:1002EE00147E00120424751300751405AE13AF149A
:0102FE0022DD
:10042400EF1FAC0670011E4C600A7D027CEFDCFEFF
:04043400DDFC80EC7F
:0104380022A1
:0B044C0000EF1F70011E144E70F6221E
:10001E00EC4D6011E8497017ED33EC3304600DE4DC
:10002E00FCFFFEFD22E933E8330470F80201CE1224
:10003E00019958046009E4CC248150062850090225
:10004E0001D82840030201D5C0E0EB4A7044B980C4
:10005E0006D0E0FB0201C4EF4E701CBD8008EBFF22
:10006E00EAFEE9FD80EBE98DF0A4FEE5F002010762
:10007E00E9CDF9EAFEEBFFEF89F0A4FCE5F0CE89BD
:10008E00F0A42EFFE435F0CD89F0A42DFEE435F07A
:10009E008067EF4E7005BD80D780C3EF8BF0A4ACA8
:1000AE00F0EE8BF0A42CFCE435F0F8EF8AF0A42CE3
:1000BE00E5F038FCE433CB8DF0A42CFCE5F03BF8F6
:1000CE00EE8AF0A42CFCE5F038F8E433CF89F0A4E6
:1000DE002CFCE5F038CF3400CE89F0A42FFFE5F0EC
:1000EE003EFEE433C98DF0A42EFEE5F039CD8AF044
:1000FE00A42FFFE5F03EFEE43DFD33D0E0FB5007BC
:10010E000BBB000F0201D8EC2CFCEF33FFEE33FEDD
:06011E00ED33FD0201B00B
:1001240075F020800E75F010800575F0087D007E56
:10013400007F003392D530D5031201E3EC33401035
:10014400EF33FFEE33FEED33FDEC33FCD5F0ED225F
:0E015400E5F0247EA2D513CC92E7CDCEFF229B
:10016200EDD2E7CD33EC3392D524814006E4FFFE95
:10017200FDFC22FCE4CFCECDCC24E0501174FF80F4
:10018200EDC3CC13CCCD13CDCE13CECF13CF047091
:07019200F030D5DE0201E3AD
:10019900E9D2E7C933E833F892D5EDD2E7CD33ECAC
:0701A90033FC5002B2D52225
:1001B000EC30E7100FBF000C0EBE00080DBD0004B0
:1001C0000BEB6014A2D5EB13FCED92E7FD2274FF5C
:1001D000FCFDFEFF22E480F8A2D574FF13FC7D80B5
:0301E000E480EFC9
:03000000020202F7
:0C020200787FE4F6D8FD758120020249E7
:0E01E300C3E49FFFE49EFEE49DFDE49CFC222D
:1001F100EB9FF5F0EA9E42F0E99D42F0E89C45F064
:0102010022DA
:10020E000203D1E493A3F8E493A34003F68001F232
:10021E0008DFF48029E493A3F85407240CC8C333F1
:10022E00C4540F4420C8834004F456800146F6DFC0
:10023E00E4800B0102040810204080900439E47E13
:10024E00019360BCA3FF543F30E509541FFEE493B5
:10025E00A360010ECF54C025E060A840B8E493A37C
:10026E00FAE493A3F8E493A3C8C582C8CAC583CAA7
:10027E00F0A3C8C582C8CAC583CADFE9DEE780BE5F
:01044B0000B0
:00000001FF
