:1000C300758902E4F58CF58AD2AFD2A9D28CD28895
:0300D300D2A8228E
:03000B00020006EA
:0300060005473279
:03000300020051A7
:09005100C0E0C0D075D000C00071
:10005A00300029E547C39435500AE547C394204048
:10006A000375210074222521F8A64775470005214A
:10007A00E521B4210CD2027521008005754700D212
:01008A000075
:07008B00D000D0D0D0E0321C
:100092007E01E4FDE4FC74222EF8E6D394054003CD
:1000A200430780ECC394075004EFC313FF0E0CBC4C
:1000B20008E474432DF8A607E4FF0DBD04D6D2016F
:0100C200221B
:0900E200C292D293D296C2972279
:0900EB00D292C293C296D2972270
:0900F400D292D293D296C2972257
:0900FD00D296D297C292D293224E
:09010600D296D297D292D2932234
:10000E001200C3D295D2943002FD120092C2023079
:10001E0001F5E54524F8601A24EC602024CA600D31
:10002E0024F86013244270171200E280121200EBC3
:10003E00800D1200F480081200FD8003120106C22A
:03004E000180C46A
:030000000200D625
:0C00D600787FE4F6D8FD75814702000E2B
:00000001FF
